:100000000C94B1020C94CE020C94CE020C94CE024D
:100010000C94CE020C94CE020C94CE020C94CE0220
:100020000C94CE020C94CE020C94CE020C94D60505
:100030000C94CE020C94CE020C94CE020C94CE0200
:100040000C94CE020C94CE020C9472050C94CE0249
:100050000C94CE020C94CE020C94CE020C94CE02E0
:100060000C94CE020C94CE0200407A10F35A00A0F9
:10007000724E18090010A5D4E80000E87648170071
:1000800000E40B54020000CA9A3B000000E1F505B1
:10009000000080969800000040420F000000A086FB
:1000A00001000000102700000000E803000000002D
:1000B0006400000000000A000000000001000000D1
:1000C00000002C76D888DC674F0823DFC1DFAE59EB
:1000D000E1B1B796E5E3E453C63AE651997696E87E
:1000E000E6C28426EB898C9B62ED407C6FFCEFBC02
:1000F0009C9F40F2BAA56FA5F490055A2AF75C932D
:100100006B6CF9676DC11BFCE0E40D47FEF520E662
:10011000B500D0ED902E0300943577050080841E45
:10012000080000204E0A000000C80C333333330FA0
:10013000986E12831141EF8D2114893BE65516CF3D
:10014000FEE6DB18D1844B381BF77C1D901DA4BB49
:10015000E424203284725E228100C9F124ECA1E5FE
:100160003D2700000000963007772C610EEEBA5153
:10017000099919C46D078FF46A7035A563E9A395D1
:10018000649E3288DB0EA4B8DC791EE9D5E088D9FC
:10019000D2972B4CB609BD7CB17E072DB8E7911DD7
:1001A000BF906410B71DF220B06A4871B9F3DE4108
:1001B000BE847DD4DA1AEBE4DD6D51B5D4F4C78585
:1001C000D38356986C13C0A86B647AF962FDECC9AE
:1001D000658A4F5C0114D96C0663633D0FFAF50D17
:1001E000088DC8206E3B5E10694CE44160D5727189
:1001F00067A2D1E4033C47D4044BFD850DD26BB517
:100200000AA5FAA8B5356C98B242D6C9BBDB40F94D
:10021000BCACE36CD832755CDF45CF0DD6DC593D04
:10022000D1ABAC30D9263A00DE518051D7C8166127
:10023000D0BFB5F4B42123C4B3569995BACF0FA556
:10024000BDB89EB802280888055FB2D90CC624E95B
:100250000BB1877C6F2F114C6858AB1D61C13D2DD0
:1002600066B69041DC760671DB01BC20D2982A107C
:10027000D5EF8985B1711FB5B606A5E4BF9F33D40C
:10028000B8E8A2C9077834F9000F8EA80996189823
:100290000EE1BB0D6A7F2D3D6D08976C6491015C8A
:1002A00063E6F4516B6B62616C1CD83065854E005F
:1002B00062F2ED95066C7BA5011BC1F4088257C460
:1002C0000FF5C6D9B06550E9B712EAB8BE8B7C8885
:1002D000B9FCDF1DDD62492DDA15F37CD38C654C4A
:1002E000D4FB5861B24DCE51B53A7400BCA3E23094
:1002F000BBD441A5DF4AD795D83D6DC4D1A4FBF44A
:10030000D6D36AE96943FCD96E34468867ADD0B864
:1003100060DA732D0444E51D03335F4C0AAAC97CDF
:100320000DDD3C710550AA41022710100BBE86203E
:100330000CC925B56857B3856F2009D466B99FE409
:1003400061CE0EF9DE5E98C9D9292298D0B0B4A842
:10035000D7C7173DB359810DB42E3B5CBDB7AD6C0B
:10036000BAC02083B8EDB6B3BF9A0CE2B6039AD2F6
:10037000B1743947D5EAAF77D29D1526DB048316D1
:10038000DC73120B63E3843B64943E6A6D0DA85AE0
:100390006A7A0BCF0EE49DFF099327AE000AB19E47
:1003A000077D44930FF0D2A3088768F2011EFEC2B6
:1003B00006695D5762F7CB67658071366C19E70691
:1003C0006B6E761BD4FEE02BD3895A7ADA10CC4AB6
:1003D000DD676FDFB9F9F9EFBE8E43BEB717D58E73
:1003E000B060E8A3D6D67E93D1A1C4C2D83852F269
:1003F000DF4FF167BBD16757BCA6DD06B53F4B3673
:10040000B248DA2B0DD84C1B0AAFF64A0336607A95
:100410000441C3EF60DF55DF67A8EF8E6E3179BE10
:1004200069468CB361CB1A8366BCA0D26F2536E2D5
:10043000685295770CCC03470BBBB91602222F26C6
:100440000555BE3BBAC5280BBDB2925AB42B046AFF
:10045000B35CA7FFD7C231CFD0B58B9ED92C1DAED0
:10046000DE5BB0C2649B26F263EC9CA36A750A93C0
:100470006D02A906099C3F360EEB8567077213577C
:100480000005824ABF95147AB8E2AE2BB17B381BC7
:10049000B60C9B8ED2920DBED5E5B7EFDC7C21DF8A
:1004A000DB0BD4D2D38642E2D4F1F8B3DD686E839D
:1004B000DA1FCD16BE815B26B9F6E177B06F7747BC
:1004C000B718E65A0888706A0FFFCA3B06665C0BCD
:1004D0000111FF9E658F69AE62F8D3FF6B6145CF56
:1004E0006C1678E20AA0EED20DD75483044EC2B344
:1004F0000339612667A7F71660D04D476949DB7756
:100500006E3E4A6AD1AEDC5AD6D9660BDF40F03B6C
:10051000D83753AEBCA9C59EBBDE7FCFB247E9FF3B
:10052000B5301CF2BDBD8AC2BACA3093B353A6A37C
:10053000B4240536D0BA9306D7CD2957DE54BF6709
:10054000D9232E7A66B3B84A61C4021B685D942B26
:100550006F2A37BE0BB4A18E0CC31BDF055A8DEF7B
:10056000022D11241FBECFEFD8E0DEBFCDBF12E0B9
:10057000A0E0B1E0EAEBF0E202C005900D92A037F6
:10058000B107D9F722E0A0E7B2E001C01D92AA3C72
:10059000B207E1F70E94210B0C945B100C94000051
:1005A000809370029AB121E030E0A90101C0440FAC
:1005B0008A95EAF7842F809589238AB98BB10090B8
:1005C000700202C0220F331F0A94E2F720952823FD
:1005D0002BB9089589B13091700290E0032E02C0CA
:1005E000959587950A94E2F780FF3CC04AB181E077
:1005F00090E0BC0102C0660F771F3A95E2F79B01BD
:10060000242B2AB9E7EAF7E03197F1F700C00000A0
:100610002AB10090700202C0880F991F0A94E2F775
:10062000809582238AB987E191E00197F1F700C0B4
:10063000000089B190E00090700202C09595879506
:100640000A94E2F780FD08C0EFE9FFE03197F1F787
:1006500000C0000081E008958FE99FE00197F1F765
:1006600000C0000080E00895882319F1813009F06E
:1006700040C0F8944AB181E090E09C010090700283
:1006800002C0220F331F0A94E2F7242B2AB9F0E5A7
:10069000FA95F1F72AB10090700202C0880F991FF5
:1006A0000A94E2F7809582238AB920EF2A95F1F720
:1006B0001FC0F8944AB181E090E09C010090700264
:1006C00002C0220F331F0A94E2F7242B2AB9EFEE5F
:1006D000F0E03197F1F700C000002AB100907002FD
:1006E00002C0880F991F0A94E2F7809582238AB985
:1006F00078948AE18A95F1F700C008951F93CF930B
:10070000DF93182FC8E0D0E010FF02C081E001C0E5
:1007100080E00E94340316952197B1F7DF91CF91C5
:100720001F910895F8944AB181E090E09C010090F7
:10073000700202C0220F331F0A94E2F7242B2AB959
:100740002AE02A95F1F700C02AB10090700202C099
:10075000880F991F0A94E2F7809582238AB985E170
:100760008A95F1F7000089B190E00090700202C014
:10077000959587950A94E2F780FF09C0789483EFF6
:1007800090E00197F1F700C0000081E008957894AF
:1007900083EF90E00197F1F700C0000080E008953A
:1007A000EF92FF920F931F93CF9398E0E92EF12CD5
:1007B000C0E00C2F10E015950795C02F0E94920302
:1007C0008111C06881E0E81AF10899F78C2FCF9168
:1007D0001F910F91FF90EF9008950E94EA02982FC9
:1007E000882389F08CEC0E947E0384E40E947E03BF
:1007F0008FE99FE00197F1F700C000000E9492038B
:1008000091E0811190E0892F0895FC0190E08CE83F
:10081000615088F0519148E0792F7527292F30E0F9
:1008200035952795922F70FF02C0982F92275695E5
:10083000415091F7EDCF892F08954F925F926F92BB
:100840007F928F929F92AF92BF92CF92DF92EF9260
:10085000FF920F931F93CF93DF93CDB7DEB7299706
:100860000FB6F894DEBF0FBECDBFD22E632E742E0E
:10087000A52EB62EC72E2C0178010E94EA02811106
:1008800002C080E098C02D2D362D472D5A2D6B2D9E
:100890007C2DC201A0E00E94740D21F48CEC0E941A
:1008A0007E031EC085E50E947E0338E0832E912CD6
:1008B0008D2D0E947E032D2D362D472D5A2D6B2D0B
:1008C0007C2DC20108E00E94580DD22E632E742E9A
:1008D000A52EB62EC72E2C0121E0821A910841F7D1
:1008E0008EEB0E947E03CE0101966C0189E0F60139
:1008F00011928A95E9F756014E01FAE08F0E911C8C
:100900000E94D003F50181935F01E815F905C1F755
:1009100019811F3F21F48A818F3F09F4B2CF69E02A
:10092000C6010E9405048111ACCF6A81F0E16F9F7E
:10093000C0011124612F70E024E0759567952A9518
:10094000E1F7682B792B072E000C880B990B0E947E
:10095000340C4B015C01612F6F7070E080E090E01F
:100960000E94340C20E030E040E85DE30E94E90C96
:100970009B01AC01C501B4010E94C10B4B015C019C
:10098000F701608371838283938320E030E04CE53C
:1009900052EC0E942D0C87FD74CF11E020E030E076
:1009A0004AEF52E4C501B4010E94E40C18160CF0A1
:1009B00010E081E0812729960FB6F894DEBF0FBEC4
:1009C000CDBFDF91CF911F910F91FF90EF90DF90FE
:1009D000CF90BF90AF909F908F907F906F905F90DF
:1009E0004F90089580937302882329F0519A599A61
:1009F0005098589A0895613039F48091C00082600F
:100A00008093C00080E103C0611108C087E61092A6
:100A1000C5008093C40088E98093C1000895909137
:100A200073029923E9F05998E0EAF1E03197F1F780
:100A300000C028E030E080FF02C0599A01C05998F8
:100A4000E0EAF1E03197F1F700C0869521503109D5
:100A500091F7599A80EA91E00197F1F700C0089563
:100A60009091C00095FFFCCF8093C60008958091BF
:100A700073028823E1F04899FECF80ED90E0019762
:100A8000F1F7000048E050E080E0E0EAF1E0319763
:100A9000F1F700C0282F30E035952795822F48992F
:100AA00080684150510989F7489BFECF0895809195
:100AB0007202811101C0FFCF109272028091710207
:100AC0000895809172020895CF93DF93009739F0D3
:100AD000EC018991882319F00E940F05FACFDF916C
:100AE000CF9108951F920F920FB60F9211248F93FA
:100AF0008091C6008093710281E0809372028F9191
:100B00000F900FBE0F901F9018954F925F926F92AB
:100B10007F928F929F92AF92BF92CF92DF92EF928D
:100B2000FF920F931F932B013C01409450946094CB
:100B30007094DA01C12CD12C7601C016D106E206E0
:100B4000F306F9F0ED91F0E0E425F525FF27EE0F2F
:100B5000FF1FEE0FFF1FEE59FE4F85909590A59059
:100B6000B4907727672D562D452D24013501442655
:100B70005526662677268FEFC81AD80AE80AF80A9B
:100B8000DCCFC301B20160957095809590951F915F
:100B90000F91FF90EF90DF90CF90BF90AF909F901C
:100BA0008F907F906F905F904F9008951F920F925B
:100BB0000FB60F9211248F9381E08093B40280913D
:100BC000B602882319F081508093B6028091BA0250
:100BD000882319F081508093BA028091B80288234B
:100BE00019F081508093B8028091BC02882319F0DB
:100BF00081508093BC028091BE02882319F08150FD
:100C00008093BE028091C002882319F081508093A6
:100C1000C0028F910F900FBE0F901F9018951092E9
:100C2000C80208950F931F93CF93DF9300D000D095
:100C3000CDB7DEB70E940F0619821A821B821C8272
:100C40008E010F5F1F4F20E030E040E050E060E099
:100C500070E080E090E00E941D04811106C01092B7
:100C6000C80283E00E94770B0FC089819A81AB8113
:100C7000BC818093C4029093C502A093C602B09336
:100C8000C70281E08093C8020F900F900F900F90E1
:100C9000DF91CF911F910F910895CF93DF93EB01D7
:100CA000811103C081E091E002C08FE091E00E94D9
:100CB0006405209751F080E291E00E946405CE0126
:100CC0000E9464058DE291E002C08EE291E0DF9126
:100CD000CF910C94640529B130E0062E02C0359501
:100CE00027950A94E2F720FD03C062E371E02FC06C
:100CF000DC0111962C91222319F06EE371E027C0DC
:100D00005BB121E030E0062E01C0220F0A94EAF721
:100D10002095352F32233BB9EFE8F1E03197F1F719
:100D200000C00000E9B1F0E0DF0102C0B595A79571
:100D30006A95E2F7A0FF0DC0FC013AB123232AB95E
:100D400021E0218388E00E94770B6CE471E081E070
:100D500007C0F894FC01408378946BE571E080E073
:100D60000C944D0629B130E0062E02C0359527952A
:100D70000A94E2F720FF03C066E671E03AC0FC0186
:100D80002181222319F06EE371E033C0F894FC0155
:100D90002081222321F0789461E771E02AC07894C1
:100DA0004BB121E030E0062E01C0220F0A94EAF791
:100DB000422B4BB9EFE8F1E03197F1F700C00000AA
:100DC00049B150E002C0559547956A95E2F740FF5A
:100DD00004C06BE771E080E00DC0FC013AB12095E2
:100DE00023232AB921E0218387E00E94770B65E85D
:100DF00071E081E00C944D0684B1807E84B985B1A8
:100E0000807E85B908958BB187708BB98AB1886F60
:100E10008AB90895109285001092840089E09DE3BC
:100E20009093890080938800109280008DE08093D9
:100E30008100EFE6F0E08081826080830895806227
:100E400080937C0080917A00806480937A00809106
:100E50007A0084FFFCCF8091790090917A009061B4
:100E600090937A000895FC0141152AEC52072AE973
:100E700062072BE3720708F4B7C080E05A5C6A4946
:100E80007B4391E0980F41152AEC52072AE962074B
:100E90002BE3720710F0892FF1CF8F5C808391E0F4
:100EA00080E0411521EE520725EF620725E0720729
:100EB00028F0515E654F75408F5FF3CFDF01A90FBA
:100EC000B11D805D8C939F5F80E0403826E952071A
:100ED00028E96207710530F04058564968497109A0
:100EE0008F5FF3CFDF01A90FB11D805D8C939F5FF2
:100EF00080E0403422E452072FE06207710530F0B1
:100F0000405452446F4071098F5FF3CFDF01A90F46
:100F1000B11D805D8C939F5F80E0403A26E85207C8
:100F200021E06207710530F0405A5648614071096E
:100F30008F5FF3CFDF01A90FB11D805D8C939F5FA1
:100F400080E0403127E252076105710530F04051E1
:100F50005742610971098F5FF4CFDF01A90FB11DFD
:100F6000805D8C939F5F80E0483E23E052076105DF
:100F7000710530F0485E5340610971098F5FF4CF0D
:100F8000DF01A90FB11D805D8C939F5F80E0443627
:100F900051056105710530F0445651096109710927
:100FA0008F5FF5CFDF01A90FB11D805D8C939F5F2F
:100FB00080E04A3051056105710530F04A50510911
:100FC000610971098F5FF5CFDF01A90FB11D805D48
:100FD0008C939F5FDF01A90FB11D405D4C939F5F14
:100FE000E90FF11D1082089590E0411581EE580738
:100FF00085EF680785E0780708F052CF403826E98A
:10100000520728E96207710508F05ECF403482E498
:1010100058078FE06807710508F06ACF403A26E864
:10102000520721E06207710508F076CF403187E270
:1010300058076105710508F083CF483E23E0520749
:101040006105710508F08FCF4436510561057105C2
:1010500008F09CCF4A3051056105710508F0A8CF12
:10106000B9CF5F926F927F928F929F92AF92BF9211
:10107000CF92DF92EF92FF920F931F93CF93DF9364
:1010800064E971E084E792E00E94AB0D6BE271E0ED
:1010900084E792E04B9B0BC00E94A00D66E971E0D3
:1010A00084E792E00E94A00D6BEA71E00AC00E9402
:1010B000A00D66E971E084E792E00E94A00D63EB69
:1010C00071E084E792E00E94A00D84E792E00E9424
:1010D0006405E4E7F2E001900020E9F731978F0121
:1010E0000457124020E030E044E752E060E070E056
:1010F000CB010E9485056B017C016BE271E084E706
:1011000092E04C9B0BC00E94AB0D69E971E084E753
:1011100092E00E94A00D6BEA71E00AC00E94AB0D44
:1011200069E971E084E792E00E94A00D63EB71E051
:1011300084E792E00E94A00D84E792E00E9464059B
:10114000E4E7F2E001900020E9F731978F010457BE
:10115000124020E030E044E752E0C701B6010E94AF
:1011600085056B017C016BE271E084E792E04D9BA9
:101170000BC00E94AB0D6CE971E084E792E00E9425
:10118000A00D6BEA71E00AC00E94AB0D6CE971E042
:1011900084E792E00E94A00D63EB71E084E792E0A7
:1011A0000E94A00D84E792E00E946405E4E7F2E06B
:1011B00001900020E9F731978F010457124020E099
:1011C00030E044E752E0C701B6010E9485056B019B
:1011D0007C016BE271E084E792E04E9B0BC00E94C1
:1011E000AB0D6FE971E084E792E00E94A00D6BEA1D
:1011F00071E00AC00E94AB0D6FE971E084E792E0F4
:101200000E94A00D63EB71E084E792E00E94A00DC4
:1012100084E792E00E946405E4E7F2E00190002098
:10122000E9F731978F010457124020E030E044E79E
:1012300052E0C701B6010E9485056B017C016BE29B
:1012400071E084E792E04F9B0BC00E94AB0D62EA15
:1012500071E084E792E00E94A00D6BEA71E00AC0A1
:101260000E94AB0D62EA71E084E792E00E94A00D5B
:1012700063EB71E084E792E00E94A00D84E792E0C6
:101280000E946405C4E7D2E0FE0101900020E9F766
:1012900031978F010457124020E030E0AE01C701C2
:1012A000B6010E9485056B017C0110927402809149
:1012B000C802882309F443C065EA71E0CE010E94A8
:1012C000A00DFE0101900020E9F7BF0161507109F6
:1012D0004AE050E080E090E00E94B20D66E072E0EB
:1012E000CE010E94A00DFE0101900020E9F78F01C0
:1012F000015011096091C4027091C5028091C6022B
:101300009091C70222E045E00E94800D66EB71E0FB
:10131000CE010E94A00DCE010E946405099000201C
:10132000E9F721978E010457124020E030E044E7AE
:1013300052E0C701B6010E9485056B017C01109245
:101340007402189B03C068EA71E002C060EB71E0B0
:1013500084E792E00E94A00D199B03C068EB71E046
:1013600002C060EC71E084E792E00E94A00D1A9B3D
:1013700003C068EC71E002C060ED71E084E792E0C8
:101380000E94A00D1B9B03C068ED71E002C060EEDF
:1013900071E084E792E00E94A00D1C9B03C068EE00
:1013A00071E002C060EF71E084E792E00E94A00D5E
:1013B00084E792E00E946405E4E7F2E001900020F7
:1013C000E9F731978F010457124020E030E044E7FD
:1013D00052E0C701B6010E9485054B015C019FE404
:1013E000692E92E0792EC0E0D0E068EF71E084E7EA
:1013F00092E00E94AB0D04E712E0F801019000209A
:10140000E9F7BF01615071094AE050E0CE010E9446
:10141000B20D66E072E0C8010E94A00DF8010190D3
:101420000020E9F731978F01045712408C2F0E945A
:101430001F07F301C190D190E190F1903F010C584A
:101440001D4F682F70E080E090E00E94340CA701EF
:1014500096010E94E90C22E045E00E94800DC73011
:1014600019F066EB71E002C06DEF71E084E792E085
:101470000E94A00D84E792E00E94640584E7E82EB4
:1014800082E0F82EF70101900020E9F731978F01F3
:101490000457124020E030E0A701C501B4010E94CA
:1014A00085054B015C012196C830D10509F09DCF1F
:1014B0006FEF71E0C7010E94AB0DF70101900020B2
:1014C000E9F7CF01B501A40101970E9433076EE24D
:1014D00071E0C7010E94A00DC701DF91CF911F915C
:1014E0000F91FF90EF90DF90CF90BF90AF909F90C3
:1014F0008F907F906F905F900C9464050F931F9373
:10150000CF93DF93CDB7DEB72A970FB6F894DEBF3F
:101510000FBECDBF813321F463E086EB92E005C0BE
:10152000823331F464E08AEB92E00E94B2067EC01E
:10153000833321F465E088EB92E0F7CF843321F424
:1015400066E08CEB92E0F1CF853321F467E08EEB1F
:1015500092E0EBCF813729F444E163E086EB92E03F
:101560001BC0873729F444E164E08AEB92E014C0A1
:10157000853629F444E165E088EB92E00DC08237BE
:1015800029F444EB66E08CEB92E006C0843739F432
:1015900044EB67E08EEB92E00E946B0647C0873613
:1015A00019F40E94310842C08136D9F58E010F5FCF
:1015B0001F4F8AE0F80111928A95E9F70E94B10B5A
:1015C0004AE050E0B80190E00E94B20D89E092E05C
:1015D0000E946405C8010E94640580E292E00E94B6
:1015E00064050E94B40BDC01CB014AE050E0B80175
:1015F0000E94B20DC8010E94640583E392E00E943C
:1016000064050E94BD0B4AE050E0B80190E00E94E2
:10161000B20DC8010E9464058EE291E00E9464054B
:1016200005C063E472E081E00E944D062A960FB681
:10163000F894DEBF0FBECDBFDF91CF911F910F9108
:1016400008950E94740B0E947B0BA8959FE088E18F
:101650000FB6F894A895809360000FBE9093600039
:101660000E9403070E94FC0682E00E94D00260E014
:1016700080E00E94F2040E940A0787E880937A00C3
:101680007894D1E08091B402882329F1A8958091C3
:10169000B502882329F00E9412061092B50219C0E3
:1016A000C5E00E94ED0381110CC082E00E94770B1F
:1016B0008FE39CE90197F1F700C00000C15089F762
:1016C00002C0D093B5028091B502811102C00E9480
:1016D0000F061092B4020E946105882399F20E94BD
:1016E00037050E947E0ACECF259A2D9808952D9A0F
:1016F000809300010895CF9384B78093C90284B783
:10170000807F84BFC091C902C3FF02C084E007C0CC
:10171000C2FF02C085E003C0C1FF03C086E00E9493
:10172000770BC0FF09C01092CA021092CB02109230
:10173000CC021092CD0213C08091CA029091CB02CC
:10174000A091CC02B091CD020196A11DB11D809354
:10175000CA029093CB02A093CC02B093CD02CF915A
:1017600008958091C90208956091CA027091CB02D8
:101770008091CC029091CD0208958091000108954E
:101780005058BB27AA270E94D80B0C94AA0C0E9481
:101790009C0C38F00E94A30C20F039F49F3F19F400
:1017A00026F40C94990C0EF4E095E7FB0C94930C42
:1017B000E92F0E94BB0C58F3BA176207730784071E
:1017C000950720F079F4A6F50C94DD0C0EF4E09565
:1017D0000B2EBA2FA02D0B01B90190010C01CA01EB
:1017E000A0011124FF27591B99F0593F50F4503E96
:1017F00068F11A16F040A22F232F342F4427585F88
:10180000F3CF469537952795A795F0405395C9F79F
:101810007EF41F16BA0B620B730B840BBAF0915057
:10182000A1F0FF0FBB1F661F771F881FC2F70EC0F6
:10183000BA0F621F731F841F48F4879577956795C9
:10184000B795F7959E3F08F0B0CF9395880F08F0B5
:101850009927EE0F9795879508950E946F0C08F4CD
:1018600081E00895E89409C097FB3EF49095809537
:10187000709561957F4F8F4F9F4F9923A9F0F92F56
:1018800096E9BB279395F695879577956795B795D4
:10189000F111F8CFFAF4BB0F11F460FF1BC06F5FBA
:1018A0007F4F8F4F9F4F16C0882311F096E911C0CC
:1018B000772321F09EE8872F762F05C0662371F0ED
:1018C00096E8862F70E060E02AF09A95660F771F01
:1018D000881FDAF7880F9695879597F90895990FDD
:1018E0000008550FAA0BE0E8FEEF16161706E807EA
:1018F000F907C0F012161306E407F50798F0621B0B
:10190000730B840B950B39F40A2661F0232B242BDF
:10191000252B21F408950A2609F4A140A6958FEFFE
:10192000811D811D089597F99F6780E870E060E050
:1019300008959FEF80EC089500240A941616170668
:1019400018060906089500240A94121613061406B0
:1019500005060895092E0394000C11F4882352F013
:10196000BB0F40F4BF2B11F460FF04C06F5F7F4FCB
:101970008F4F9F4F089557FD9058440F551F59F0B2
:101980005F3F71F04795880F97FB991F61F09F3F6C
:1019900079F087950895121613061406551FF2CF95
:1019A0004695F1DF08C0161617061806991FF1CFE5
:1019B00086957105610508940895E894BB2766270C
:1019C0007727CB0197F908950E946F0C08F48FEFE9
:1019D00008950E94FC0C0C94AA0C0E949C0C38F0F8
:1019E0000E94A30C20F0952311F00C94930C0C94FE
:1019F000990C11240C94DE0C0E94BB0C70F3959F83
:101A0000C1F3950F50E0551F629FF001729FBB27F5
:101A1000F00DB11D639FAA27F00DB11DAA1F649F91
:101A20006627B00DA11D661F829F2227B00DA11D44
:101A3000621F739FB00DA11D621F839FA00D611DCA
:101A4000221F749F3327A00D611D231F849F600DEB
:101A5000211D822F762F6A2F11249F5750409AF014
:101A6000F1F088234AF0EE0FFF1FBB1F661F771FA0
:101A7000881F91505040A9F79E3F510580F00C946B
:101A8000930C0C94DE0C5F3FE4F3983ED4F3869500
:101A900077956795B795F795E7959F5FC1F7FE2B0B
:101AA000880F911D9695879597F9089597FB10F8E3
:101AB000169400080F93083098F00850232F342F05
:101AC000452F562F672F782F892F902DF4CF05940F
:101AD0009795879577956795579547953795279566
:101AE0000A95AAF70F9108950024A7FD00942A17DC
:101AF0003005400550056005700580059005089586
:101B0000EF920F931F93CF93DF93E80147FD02C03D
:101B100034E001C034E1042E000C550B57FF03C024
:101B2000519541955109E32E022F242FAE010E94B9
:101B3000E20DCE01DF91CF911F910F91EF900895AB
:101B4000FB01DC010D900020E9F7119701900D9247
:101B50000020E1F70895FB01DC0101900D920020C7
:101B6000E1F708954532510520F4423010F00C940D
:101B7000BD0DFB011082CB010895BB274A3031F423
:101B8000992322F4BDE2909581959F4F0C94C90D45
:101B9000BB27FB015527AA27880F991FAA1FA41747
:101BA00010F0A41B83955051B9F7A05DAA3308F03B
:101BB000A95DA193009779F7B111B1931192CB016F
:101BC0000C941410A9E0B0E0E8EEFDE00C942A10AB
:101BD0006A01122FB02E2BE3201720F0FF24F3947C
:101BE000F00E02C02CE3F22E0F2D27E0AE014F5F66
:101BF0005F4F0E943C0FBC014981842F8970813066
:101C000031F0E1FC06C0E0FE06C090E205C09DE2B6
:101C100003C09BE201C090E05E2D507143FF3CC0C9
:101C2000911102C083E001C084E0811718F4212FD4
:101C3000281B01C020E051110BC0F601822F30E2B9
:101C4000882319F031938150FBCFC20ED11C20E0C4
:101C5000992329F0D6019C93F60131966F01C601B4
:101C60000396E2FE0AC03EE4D6013C9341E411969D
:101C70004C93119712963C9306C03EE6F6013083D2
:101C800041E641833283FC01322F40E2332309F4E1
:101C900042C041933150FACF42FF44C0911102C07B
:101CA00083E001C084E0811718F4212F281B01C0B4
:101CB00020E051110BC0F601822F30E2882319F089
:101CC00031938150FBCFC20ED11C20E0992329F023
:101CD000D6019C93F60131966F01C6010396E2FE90
:101CE0000BC039E4D6013C933EE411963C93119726
:101CF00036E412963C9307C039E6F60130833EE69F
:101D0000318336E63283FC01322F40E2332319F06F
:101D100041933150FBCFFC01E20FF11D10828EEF99
:101D20009FEFA6C021E030E0911102C020E030E03A
:101D3000161617061CF4FB01319602C0E1E0F0E034
:101D40002E0F3F1FBB2021F0EB2DF0E0319602C09B
:101D5000E0E0F0E02E0F3F1FE12FF0E02E173F07ED
:101D60001CF4121B212F01C020E08E2D887159F424
:101D7000F601822F30E2882319F031938150FBCF96
:101D8000C20ED11C20E0992329F0D6019C93F601C4
:101D900031966F0151110BC0F601822F90E3882319
:101DA00019F091938150FBCFC20ED11C20E00F2D72
:101DB000060F9A81342F307144FF03C0913309F428
:101DC0000150101624F4093018F008E001C001E0B9
:101DD000AB0177FF02C040E050E0FB01E41BF50BD4
:101DE000A1E0B0E0AC0FBD1FEA0FFB1F8EE2A82EF2
:101DF0004B01801A91080B2D10E0119501951109E6
:101E00004F3FBFEF5B0721F4D601AC9211966D01F5
:101E1000641775072CF08416950614F4818101C0AF
:101E200080E3415051093196D60111967D0140174A
:101E3000510724F0D6018C936701E2CF6417750730
:101E400039F4963320F4953319F4311101C081E34C
:101E5000F6018083F701822F90E2882319F0919395
:101E60008150FBCFF701E20FF11D108280E090E07E
:101E70002996ECE00C944610283008F027E0332730
:101E8000DA01990F311D87FD91600096610571059A
:101E900039F432602E5F3D9330E32A95E1F70895DF
:101EA0009F3F30F080387105610509F03C5F3C5F71
:101EB0003D93913008F08068911DDF93CF931F937D
:101EC0000F93FF92EF92192F987F9695E92F969591
:101ED0009695E90FFF27EE53FF4F99273327EE24FE
:101EE000FF24A701E70105900894079428F4360F12
:101EF000E71EF81E491F511D660F771F881F991F87
:101F00000694A1F70590079428F4E70EF81E491FE0
:101F1000561FC11D770F881F991F661F0694A1F7D2
:101F20000590079428F4F80E491F561FC71FD11DAE
:101F3000880F991F661F771F0694A1F705900794D5
:101F400020F4490F561FC71FD81F990F661F771F10
:101F5000881F0694A9F784911095177041F0D695C3
:101F6000C79557954795F794E7941A95C1F7E8E612
:101F7000F0E06894159015913591659195910590D3
:101F80007FE27395E118F10A430B560BC90BD00998
:101F9000C0F7E10CF11E431F561FC91FD01D7EF470
:101FA000703311F48A95E6CFE894015030F0080FB1
:101FB0000AF40027021708F4202F2395022F7A3302
:101FC00028F079E37D932A95E9F710C07D932A954F
:101FD00089F6069497956795379517951794E118A4
:101FE000F10A430B560BC90BD00998F023957E914B
:101FF00073957A3308F070E37C932013B8F77E91E1
:1020000070617D9330F0839571E37D9370E32A9541
:10201000E1F71124EF90FF900F911F91CF91DF9185
:10202000992787FD90950895DC01FC01672F719138
:102030007723E1F7329704C07C916D9370836291AE
:10204000AE17BF07C8F308952F923F924F925F9249
:102050006F927F928F929F92AF92BF92CF92DF92B8
:10206000EF92FF920F931F93CF93DF93CDB7DEB71D
:10207000CA1BDB0B0FB6F894DEBF0FBECDBF0994B1
:102080002A88398848885F846E847D848C849B8408
:10209000AA84B984C884DF80EE80FD800C811B8116
:1020A000AA81B981CE0FD11D0FB6F894DEBF0FBE45
:0A20B000CDBFED010895F894FFCFB5
:1020BA00017B227374617465223A226F6B22007B62
:1020CA00227374617465223A226572726F722200F9
:1020DA002C226D657373616765223A2200227D0D99
:1020EA000A00616C7265616479206F6666007069C6
:1020FA006E20636F727275707465640073686F72B4
:10210A0074656420746F20564343006F66662070BE
:10211A00696E206F6B00616C7265616479206F6E05
:10212A0000746F6F206F6674656E006F6E20706941
:10213A006E206F6B0073686F7274656420746F2011
:10214A00474E44007B006330006331006332006312
:10215A003300633400227400226430223A312C00A6
:10216A00226430223A302C00226431223A312C0087
:10217A00226431223A302C00226432223A312C0075
:10218A00226432223A302C00226433223A312C0063
:10219A00226433223A302C00226434223A312C0051
:1021AA00226434223A302C0022616463007D000DDF
:1021BA000A7B22637263223A007B226C6173745F2A
:1021CA0072657365745F726561736F6E73223A002C
:1021DA002C202272657365745F636F756E74657205
:1021EA00223A002C20226C6173745F6572726F72DE
:1021FA00223A0062616420636F6D6D616E6400BC97
:10220A0074933CBC74933CBC74933CBC74933CBCC8
:10221A0074933CBC74933CBC74933CBC74933C0074
:00000001FF
